{
  "_format": "hh-sol-artifact-1",
  "contractName": "Vests",
  "sourceName": "contracts/Vesting.sol",
  "abi": [
    {
      "inputs": [],
      "name": "TimeInPastError",
      "type": "error"
    },
    {
      "inputs": [
        {
          "internalType": "address",
          "name": "whitelistAddr",
          "type": "address"
        },
        {
          "internalType": "address",
          "name": "stakeHolderAddr",
          "type": "address"
        },
        {
          "internalType": "uint256",
          "name": "amountAllocated",
          "type": "uint256"
        }
      ],
      "name": "addToStakeHolderWhiteList",
      "outputs": [],
      "stateMutability": "nonpayable",
      "type": "function"
    },
    {
      "inputs": [
        {
          "internalType": "address",
          "name": "connectedUser",
          "type": "address"
        }
      ],
      "name": "addressIdentity",
      "outputs": [
        {
          "internalType": "string",
          "name": "",
          "type": "string"
        }
      ],
      "stateMutability": "view",
      "type": "function"
    },
    {
      "inputs": [],
      "name": "claimToken",
      "outputs": [
        {
          "internalType": "bool",
          "name": "",
          "type": "bool"
        }
      ],
      "stateMutability": "nonpayable",
      "type": "function"
    },
    {
      "inputs": [],
      "name": "getBalance",
      "outputs": [
        {
          "internalType": "uint256",
          "name": "",
          "type": "uint256"
        }
      ],
      "stateMutability": "view",
      "type": "function"
    },
    {
      "inputs": [
        {
          "internalType": "address",
          "name": "sender",
          "type": "address"
        }
      ],
      "name": "getStakeHolders",
      "outputs": [
        {
          "components": [
            {
              "internalType": "address",
              "name": "stakeholderAddress",
              "type": "address"
            },
            {
              "internalType": "address",
              "name": "admin",
              "type": "address"
            },
            {
              "internalType": "string",
              "name": "role",
              "type": "string"
            },
            {
              "internalType": "string",
              "name": "condition",
              "type": "string"
            },
            {
              "internalType": "uint256",
              "name": "lockTime",
              "type": "uint256"
            },
            {
              "internalType": "uint256",
              "name": "gratuity",
              "type": "uint256"
            },
            {
              "internalType": "bool",
              "name": "conditionMet",
              "type": "bool"
            }
          ],
          "internalType": "struct Vests.Stakeholder[]",
          "name": "",
          "type": "tuple[]"
        }
      ],
      "stateMutability": "view",
      "type": "function"
    },
    {
      "inputs": [
        {
          "internalType": "address",
          "name": "sender",
          "type": "address"
        }
      ],
      "name": "getStakeholdingDetails",
      "outputs": [
        {
          "components": [
            {
              "internalType": "address",
              "name": "stakeholderAddress",
              "type": "address"
            },
            {
              "internalType": "address",
              "name": "admin",
              "type": "address"
            },
            {
              "internalType": "string",
              "name": "role",
              "type": "string"
            },
            {
              "internalType": "string",
              "name": "condition",
              "type": "string"
            },
            {
              "internalType": "uint256",
              "name": "lockTime",
              "type": "uint256"
            },
            {
              "internalType": "uint256",
              "name": "gratuity",
              "type": "uint256"
            },
            {
              "internalType": "bool",
              "name": "conditionMet",
              "type": "bool"
            }
          ],
          "internalType": "struct Vests.Stakeholder",
          "name": "",
          "type": "tuple"
        }
      ],
      "stateMutability": "view",
      "type": "function"
    },
    {
      "inputs": [
        {
          "internalType": "string",
          "name": "_name",
          "type": "string"
        },
        {
          "internalType": "string",
          "name": "_tokenName",
          "type": "string"
        },
        {
          "internalType": "string",
          "name": "_symbol",
          "type": "string"
        },
        {
          "internalType": "uint256",
          "name": "_totalSupply",
          "type": "uint256"
        }
      ],
      "name": "registerOrganization",
      "outputs": [
        {
          "internalType": "bool",
          "name": "",
          "type": "bool"
        }
      ],
      "stateMutability": "nonpayable",
      "type": "function"
    },
    {
      "inputs": [
        {
          "internalType": "address",
          "name": "_stakeholderAddress",
          "type": "address"
        },
        {
          "internalType": "string",
          "name": "_role",
          "type": "string"
        },
        {
          "internalType": "string",
          "name": "_condition",
          "type": "string"
        },
        {
          "internalType": "uint256",
          "name": "_lockTime",
          "type": "uint256"
        },
        {
          "internalType": "uint256",
          "name": "_gratuity",
          "type": "uint256"
        }
      ],
      "name": "registerStakeholder",
      "outputs": [
        {
          "internalType": "bool",
          "name": "",
          "type": "bool"
        }
      ],
      "stateMutability": "nonpayable",
      "type": "function"
    },
    {
      "inputs": [
        {
          "internalType": "address",
          "name": "stakeHolder",
          "type": "address"
        }
      ],
      "name": "releaseToken",
      "outputs": [
        {
          "internalType": "bool",
          "name": "",
          "type": "bool"
        }
      ],
      "stateMutability": "nonpayable",
      "type": "function"
    }
  ],
  "bytecode": "0x608060405234801561001057600080fd5b50615fcd806100206000396000f3fe60806040523480156200001157600080fd5b5060043610620000a05760003560e01c80634451d89f116200006f5780634451d89f14620001535780634e67e853146200017557806384ae5b0814620001ab578063d55b3fe414620001e1578063e545f941146200021757620000a0565b806306a0aa7814620000a557806312065fe014620000db5780631a2d782614620000fd57806341adc71d146200011d575b600080fd5b620000c36004803603810190620000bd91906200342f565b6200024d565b604051620000d29190620035f5565b60405180910390f35b620000e562000b5d565b604051620000f491906200362a565b60405180910390f35b6200011b600480360381019062000115919062003678565b6200105c565b005b6200013b60048036038101906200013591906200342f565b62001560565b6040516200014a919062003726565b60405180910390f35b6200015d6200183a565b6040516200016c91906200375b565b60405180910390f35b6200019360048036038101906200018d91906200342f565b620022fa565b604051620001a29190620038f9565b60405180910390f35b620001c96004803603810190620001c3919062003a6e565b6200262f565b604051620001d891906200375b565b60405180910390f35b620001ff6004803603810190620001f9919062003b34565b62002ddf565b6040516200020e91906200375b565b60405180910390f35b6200023560048036038101906200022f91906200342f565b62003133565b6040516200024491906200375b565b60405180910390f35b620002576200333d565b6000620002648362001560565b90506040518060400160405280601381526020017f57686974656c69737465642041646472657373000000000000000000000000008152508051906020012081805190602001201480620002fa57506040518060400160405280600b81526020017f5374616b65686f6c646572000000000000000000000000000000000000000000815250805190602001208180519060200120145b6200033c576040517f08c379a0000000000000000000000000000000000000000000000000000000008152600401620003339062003c79565b60405180910390fd5b6040518060400160405280600b81526020017f5374616b65686f6c64657200000000000000000000000000000000000000000081525080519060200120818051906020012003620005e957600260008473ffffffffffffffffffffffffffffffffffffffff1673ffffffffffffffffffffffffffffffffffffffff1681526020019081526020016000206040518060e00160405290816000820160009054906101000a900473ffffffffffffffffffffffffffffffffffffffff1673ffffffffffffffffffffffffffffffffffffffff1673ffffffffffffffffffffffffffffffffffffffff1681526020016001820160009054906101000a900473ffffffffffffffffffffffffffffffffffffffff1673ffffffffffffffffffffffffffffffffffffffff1673ffffffffffffffffffffffffffffffffffffffff1681526020016002820180546200048f9062003cca565b80601f0160208091040260200160405190810160405280929190818152602001828054620004bd9062003cca565b80156200050e5780601f10620004e2576101008083540402835291602001916200050e565b820191906000526020600020905b815481529060010190602001808311620004f057829003601f168201915b50505050508152602001600382018054620005299062003cca565b80601f0160208091040260200160405190810160405280929190818152602001828054620005579062003cca565b8015620005a85780601f106200057c57610100808354040283529160200191620005a8565b820191906000526020600020905b8154815290600101906020018083116200058a57829003601f168201915b5050505050815260200160048201548152602001600582015481526020016006820160009054906101000a900460ff16151515158152505091505062000b58565b6040518060400160405280601381526020017f57686974656c697374656420416464726573730000000000000000000000000081525080519060200120818051906020012003620008fb576000600660008573ffffffffffffffffffffffffffffffffffffffff1673ffffffffffffffffffffffffffffffffffffffff16815260200190815260200160002060009054906101000a900473ffffffffffffffffffffffffffffffffffffffff169050600260008273ffffffffffffffffffffffffffffffffffffffff1673ffffffffffffffffffffffffffffffffffffffff1681526020019081526020016000206040518060e00160405290816000820160009054906101000a900473ffffffffffffffffffffffffffffffffffffffff1673ffffffffffffffffffffffffffffffffffffffff1673ffffffffffffffffffffffffffffffffffffffff1681526020016001820160009054906101000a900473ffffffffffffffffffffffffffffffffffffffff1673ffffffffffffffffffffffffffffffffffffffff1673ffffffffffffffffffffffffffffffffffffffff168152602001600282018054620007a09062003cca565b80601f0160208091040260200160405190810160405280929190818152602001828054620007ce9062003cca565b80156200081f5780601f10620007f3576101008083540402835291602001916200081f565b820191906000526020600020905b8154815290600101906020018083116200080157829003601f168201915b505050505081526020016003820180546200083a9062003cca565b80601f0160208091040260200160405190810160405280929190818152602001828054620008689062003cca565b8015620008b95780601f106200088d57610100808354040283529160200191620008b9565b820191906000526020600020905b8154815290600101906020018083116200089b57829003601f168201915b5050505050815260200160048201548152602001600582015481526020016006820160009054906101000a900460ff1615151515815250509250505062000b58565b600260003373ffffffffffffffffffffffffffffffffffffffff1673ffffffffffffffffffffffffffffffffffffffff1681526020019081526020016000206040518060e00160405290816000820160009054906101000a900473ffffffffffffffffffffffffffffffffffffffff1673ffffffffffffffffffffffffffffffffffffffff1673ffffffffffffffffffffffffffffffffffffffff1681526020016001820160009054906101000a900473ffffffffffffffffffffffffffffffffffffffff1673ffffffffffffffffffffffffffffffffffffffff1673ffffffffffffffffffffffffffffffffffffffff16815260200160028201805462000a039062003cca565b80601f016020809104026020016040519081016040528092919081815260200182805462000a319062003cca565b801562000a825780601f1062000a565761010080835404028352916020019162000a82565b820191906000526020600020905b81548152906001019060200180831162000a6457829003601f168201915b5050505050815260200160038201805462000a9d9062003cca565b80601f016020809104026020016040519081016040528092919081815260200182805462000acb9062003cca565b801562000b1c5780601f1062000af05761010080835404028352916020019162000b1c565b820191906000526020600020905b81548152906001019060200180831162000afe57829003601f168201915b5050505050815260200160048201548152602001600582015481526020016006820160009054906101000a900460ff1615151515815250509150505b919050565b60008062000b6b3362001560565b90506040518060400160405280601381526020017f57686974656c69737465642041646472657373000000000000000000000000008152508051906020012081805190602001200362000d75576000600660003373ffffffffffffffffffffffffffffffffffffffff1673ffffffffffffffffffffffffffffffffffffffff16815260200190815260200160002060009054906101000a900473ffffffffffffffffffffffffffffffffffffffff1690506000600260008373ffffffffffffffffffffffffffffffffffffffff1673ffffffffffffffffffffffffffffffffffffffff16815260200190815260200160002060010160009054906101000a900473ffffffffffffffffffffffffffffffffffffffff1690506000600160008373ffffffffffffffffffffffffffffffffffffffff1673ffffffffffffffffffffffffffffffffffffffff16815260200190815260200160002060010160009054906101000a900473ffffffffffffffffffffffffffffffffffffffff1690508073ffffffffffffffffffffffffffffffffffffffff1663e3d670d7336040518263ffffffff1660e01b815260040162000d25919062003d10565b602060405180830381865afa15801562000d43573d6000803e3d6000fd5b505050506040513d601f19601f8201168201806040525081019062000d69919062003d44565b94505050505062001059565b6040518060400160405280600b81526020017f5374616b65686f6c6465720000000000000000000000000000000000000000008152508051906020012081805190602001200362000f18576000600260003373ffffffffffffffffffffffffffffffffffffffff1673ffffffffffffffffffffffffffffffffffffffff16815260200190815260200160002060010160009054906101000a900473ffffffffffffffffffffffffffffffffffffffff1690506000600160008373ffffffffffffffffffffffffffffffffffffffff1673ffffffffffffffffffffffffffffffffffffffff16815260200190815260200160002060010160009054906101000a900473ffffffffffffffffffffffffffffffffffffffff1690508073ffffffffffffffffffffffffffffffffffffffff1663e3d670d7336040518263ffffffff1660e01b815260040162000ec9919062003d10565b602060405180830381865afa15801562000ee7573d6000803e3d6000fd5b505050506040513d601f19601f8201168201806040525081019062000f0d919062003d44565b935050505062001059565b6040518060400160405280600d81526020017f41646d696e6973747261746f72000000000000000000000000000000000000008152508051906020012081805190602001200362001053576000600160003373ffffffffffffffffffffffffffffffffffffffff1673ffffffffffffffffffffffffffffffffffffffff16815260200190815260200160002060010160009054906101000a900473ffffffffffffffffffffffffffffffffffffffff1690508073ffffffffffffffffffffffffffffffffffffffff1663e3d670d7336040518263ffffffff1660e01b815260040162001005919062003d10565b602060405180830381865afa15801562001023573d6000803e3d6000fd5b505050506040513d601f19601f8201168201806040525081019062001049919062003d44565b9250505062001059565b60009150505b90565b33600160008273ffffffffffffffffffffffffffffffffffffffff1673ffffffffffffffffffffffffffffffffffffffff16815260200190815260200160002060020160149054906101000a900460ff16620010ef576040517f08c379a0000000000000000000000000000000000000000000000000000000008152600401620010e69062003dec565b60405180910390fd5b600460003373ffffffffffffffffffffffffffffffffffffffff1673ffffffffffffffffffffffffffffffffffffffff16815260200190815260200160002060008473ffffffffffffffffffffffffffffffffffffffff1673ffffffffffffffffffffffffffffffffffffffff16815260200190815260200160002060009054906101000a900460ff16620011bb576040517f08c379a0000000000000000000000000000000000000000000000000000000008152600401620011b29062003e84565b60405180910390fd5b600073ffffffffffffffffffffffffffffffffffffffff16600260008573ffffffffffffffffffffffffffffffffffffffff1673ffffffffffffffffffffffffffffffffffffffff16815260200190815260200160002060010160009054906101000a900473ffffffffffffffffffffffffffffffffffffffff1673ffffffffffffffffffffffffffffffffffffffff16036200128f576040517f08c379a0000000000000000000000000000000000000000000000000000000008152600401620012869062003ef6565b60405180910390fd5b81600560003373ffffffffffffffffffffffffffffffffffffffff1673ffffffffffffffffffffffffffffffffffffffff16815260200190815260200160002060008573ffffffffffffffffffffffffffffffffffffffff1673ffffffffffffffffffffffffffffffffffffffff16815260200190815260200160002060050154101562001354576040517f08c379a00000000000000000000000000000000000000000000000000000000081526004016200134b9062003f8e565b60405180910390fd5b81600360008573ffffffffffffffffffffffffffffffffffffffff1673ffffffffffffffffffffffffffffffffffffffff16815260200190815260200160002060008673ffffffffffffffffffffffffffffffffffffffff1673ffffffffffffffffffffffffffffffffffffffff1681526020019081526020016000206000828254620013e2919062003fdf565b9250508190555082600660008673ffffffffffffffffffffffffffffffffffffffff1673ffffffffffffffffffffffffffffffffffffffff16815260200190815260200160002060006101000a81548173ffffffffffffffffffffffffffffffffffffffff021916908373ffffffffffffffffffffffffffffffffffffffff16021790555081600560003373ffffffffffffffffffffffffffffffffffffffff1673ffffffffffffffffffffffffffffffffffffffff16815260200190815260200160002060008573ffffffffffffffffffffffffffffffffffffffff1673ffffffffffffffffffffffffffffffffffffffff1681526020019081526020016000206005016000828254620014f891906200401a565b9250508190555081600260008573ffffffffffffffffffffffffffffffffffffffff1673ffffffffffffffffffffffffffffffffffffffff16815260200190815260200160002060050160008282546200155391906200401a565b9250508190555050505050565b606060008073ffffffffffffffffffffffffffffffffffffffff16600660008573ffffffffffffffffffffffffffffffffffffffff1673ffffffffffffffffffffffffffffffffffffffff16815260200190815260200160002060009054906101000a900473ffffffffffffffffffffffffffffffffffffffff1673ffffffffffffffffffffffffffffffffffffffff161415905060008073ffffffffffffffffffffffffffffffffffffffff16600260008673ffffffffffffffffffffffffffffffffffffffff1673ffffffffffffffffffffffffffffffffffffffff16815260200190815260200160002060000160009054906101000a900473ffffffffffffffffffffffffffffffffffffffff1673ffffffffffffffffffffffffffffffffffffffff161415905060008073ffffffffffffffffffffffffffffffffffffffff16600160008773ffffffffffffffffffffffffffffffffffffffff1673ffffffffffffffffffffffffffffffffffffffff16815260200190815260200160002060020160009054906101000a900473ffffffffffffffffffffffffffffffffffffffff1673ffffffffffffffffffffffffffffffffffffffff1614159050821562001769576040518060400160405280601381526020017f57686974656c6973746564204164647265737300000000000000000000000000815250935050505062001835565b8115620017b1576040518060400160405280600b81526020017f5374616b65686f6c646572000000000000000000000000000000000000000000815250935050505062001835565b8015620017f9576040518060400160405280600d81526020017f41646d696e6973747261746f7200000000000000000000000000000000000000815250935050505062001835565b6040518060400160405280600881526020017f706173736572627900000000000000000000000000000000000000000000000081525093505050505b919050565b60008073ffffffffffffffffffffffffffffffffffffffff16600160003373ffffffffffffffffffffffffffffffffffffffff1673ffffffffffffffffffffffffffffffffffffffff16815260200190815260200160002060020160009054906101000a900473ffffffffffffffffffffffffffffffffffffffff1673ffffffffffffffffffffffffffffffffffffffff16146200190f576040517f08c379a00000000000000000000000000000000000000000000000000000000081526004016200190690620040f1565b60405180910390fd5b60006200191c3362001560565b90506040518060400160405280601381526020017f57686974656c69737465642041646472657373000000000000000000000000008152508051906020012081805190602001200362001e0a576000600660003373ffffffffffffffffffffffffffffffffffffffff1673ffffffffffffffffffffffffffffffffffffffff16815260200190815260200160002060009054906101000a900473ffffffffffffffffffffffffffffffffffffffff1690506000600360008373ffffffffffffffffffffffffffffffffffffffff1673ffffffffffffffffffffffffffffffffffffffff16815260200190815260200160002060003373ffffffffffffffffffffffffffffffffffffffff1673ffffffffffffffffffffffffffffffffffffffff1681526020019081526020016000205490506000600260008473ffffffffffffffffffffffffffffffffffffffff1673ffffffffffffffffffffffffffffffffffffffff16815260200190815260200160002060010160009054906101000a900473ffffffffffffffffffffffffffffffffffffffff16905042600260008573ffffffffffffffffffffffffffffffffffffffff1673ffffffffffffffffffffffffffffffffffffffff16815260200190815260200160002060040154111562001b3d576040517f08c379a000000000000000000000000000000000000000000000000000000000815260040162001b349062004163565b60405180910390fd5b600260008473ffffffffffffffffffffffffffffffffffffffff1673ffffffffffffffffffffffffffffffffffffffff16815260200190815260200160002060060160009054906101000a900460ff1662001bcf576040517f08c379a000000000000000000000000000000000000000000000000000000000815260040162001bc690620041fb565b60405180910390fd5b6000600360008573ffffffffffffffffffffffffffffffffffffffff1673ffffffffffffffffffffffffffffffffffffffff16815260200190815260200160002060003373ffffffffffffffffffffffffffffffffffffffff1673ffffffffffffffffffffffffffffffffffffffff168152602001908152602001600020540362001c91576040517f08c379a000000000000000000000000000000000000000000000000000000000815260040162001c88906200426d565b60405180910390fd5b6000600160008373ffffffffffffffffffffffffffffffffffffffff1673ffffffffffffffffffffffffffffffffffffffff16815260200190815260200160002060010160009054906101000a900473ffffffffffffffffffffffffffffffffffffffff1690508073ffffffffffffffffffffffffffffffffffffffff166323b872dd8333866040518463ffffffff1660e01b815260040162001d37939291906200428f565b6020604051808303816000875af115801562001d57573d6000803e3d6000fd5b505050506040513d601f19601f8201168201806040525081019062001d7d9190620042fd565b506000600360008673ffffffffffffffffffffffffffffffffffffffff1673ffffffffffffffffffffffffffffffffffffffff16815260200190815260200160002060003373ffffffffffffffffffffffffffffffffffffffff1673ffffffffffffffffffffffffffffffffffffffff1681526020019081526020016000208190555050505050620022f2565b6040518060400160405280600b81526020017f5374616b65686f6c64657200000000000000000000000000000000000000000081525080519060200120818051906020012003620022f15742600260003373ffffffffffffffffffffffffffffffffffffffff1673ffffffffffffffffffffffffffffffffffffffff16815260200190815260200160002060040154111562001edd576040517f08c379a000000000000000000000000000000000000000000000000000000000815260040162001ed49062004163565b60405180910390fd5b600260003373ffffffffffffffffffffffffffffffffffffffff1673ffffffffffffffffffffffffffffffffffffffff16815260200190815260200160002060060160009054906101000a900460ff1662001f6f576040517f08c379a000000000000000000000000000000000000000000000000000000000815260040162001f6690620041fb565b60405180910390fd5b6000600260003373ffffffffffffffffffffffffffffffffffffffff1673ffffffffffffffffffffffffffffffffffffffff16815260200190815260200160002060010160009054906101000a900473ffffffffffffffffffffffffffffffffffffffff1690506000600260003373ffffffffffffffffffffffffffffffffffffffff1673ffffffffffffffffffffffffffffffffffffffff1681526020019081526020016000206005015414158015620020aa57506000600560008373ffffffffffffffffffffffffffffffffffffffff1673ffffffffffffffffffffffffffffffffffffffff16815260200190815260200160002060003373ffffffffffffffffffffffffffffffffffffffff1673ffffffffffffffffffffffffffffffffffffffff1681526020019081526020016000206005015414155b620020ec576040517f08c379a0000000000000000000000000000000000000000000000000000000008152600401620020e3906200437f565b60405180910390fd5b6000600260003373ffffffffffffffffffffffffffffffffffffffff1673ffffffffffffffffffffffffffffffffffffffff1681526020019081526020016000206005015490506000600160008473ffffffffffffffffffffffffffffffffffffffff1673ffffffffffffffffffffffffffffffffffffffff16815260200190815260200160002060010160009054906101000a900473ffffffffffffffffffffffffffffffffffffffff1690508073ffffffffffffffffffffffffffffffffffffffff166323b872dd8433856040518463ffffffff1660e01b8152600401620021d9939291906200428f565b6020604051808303816000875af1158015620021f9573d6000803e3d6000fd5b505050506040513d601f19601f820116820180604052508101906200221f9190620042fd565b506000600560008573ffffffffffffffffffffffffffffffffffffffff1673ffffffffffffffffffffffffffffffffffffffff16815260200190815260200160002060003373ffffffffffffffffffffffffffffffffffffffff1673ffffffffffffffffffffffffffffffffffffffff168152602001908152602001600020600501819055506000600260003373ffffffffffffffffffffffffffffffffffffffff1673ffffffffffffffffffffffffffffffffffffffff168152602001908152602001600020600501819055505050505b5b600191505090565b606060008060008473ffffffffffffffffffffffffffffffffffffffff1673ffffffffffffffffffffffffffffffffffffffff168152602001908152602001600020805490500362002383576040517f08c379a00000000000000000000000000000000000000000000000000000000081526004016200237a90620043f1565b60405180910390fd5b6000808373ffffffffffffffffffffffffffffffffffffffff1673ffffffffffffffffffffffffffffffffffffffff168152602001908152602001600020805480602002602001604051908101604052809291908181526020016000905b828210156200262457838290600052602060002090600702016040518060e00160405290816000820160009054906101000a900473ffffffffffffffffffffffffffffffffffffffff1673ffffffffffffffffffffffffffffffffffffffff1673ffffffffffffffffffffffffffffffffffffffff1681526020016001820160009054906101000a900473ffffffffffffffffffffffffffffffffffffffff1673ffffffffffffffffffffffffffffffffffffffff1673ffffffffffffffffffffffffffffffffffffffff168152602001600282018054620024c39062003cca565b80601f0160208091040260200160405190810160405280929190818152602001828054620024f19062003cca565b8015620025425780601f10620025165761010080835404028352916020019162002542565b820191906000526020600020905b8154815290600101906020018083116200252457829003601f168201915b505050505081526020016003820180546200255d9062003cca565b80601f01602080910402602001604051908101604052809291908181526020018280546200258b9062003cca565b8015620025dc5780601f10620025b057610100808354040283529160200191620025dc565b820191906000526020600020905b815481529060010190602001808311620025be57829003601f168201915b5050505050815260200160048201548152602001600582015481526020016006820160009054906101000a900460ff16151515158152505081526020019060010190620023e1565b505050509050919050565b600033600160008273ffffffffffffffffffffffffffffffffffffffff1673ffffffffffffffffffffffffffffffffffffffff16815260200190815260200160002060020160149054906101000a900460ff16620026c4576040517f08c379a0000000000000000000000000000000000000000000000000000000008152600401620026bb9062003dec565b60405180910390fd5b600073ffffffffffffffffffffffffffffffffffffffff168773ffffffffffffffffffffffffffffffffffffffff160362002736576040517f08c379a00000000000000000000000000000000000000000000000000000000081526004016200272d9062004463565b60405180910390fd5b600460003373ffffffffffffffffffffffffffffffffffffffff1673ffffffffffffffffffffffffffffffffffffffff16815260200190815260200160002060008873ffffffffffffffffffffffffffffffffffffffff1673ffffffffffffffffffffffffffffffffffffffff16815260200190815260200160002060009054906101000a900460ff161562002803576040517f08c379a0000000000000000000000000000000000000000000000000000000008152600401620027fa90620044fb565b60405180910390fd5b600086905060008151036200284f576040517f08c379a000000000000000000000000000000000000000000000000000000000815260040162002846906200456d565b60405180910390fd5b600086510362002896576040517f08c379a00000000000000000000000000000000000000000000000000000000081526004016200288d9062004605565b60405180910390fd5b42851015620028d1576040517f962b463300000000000000000000000000000000000000000000000000000000815260040160405180910390fd5b60006040518060e001604052808a73ffffffffffffffffffffffffffffffffffffffff1681526020013373ffffffffffffffffffffffffffffffffffffffff1681526020018981526020018881526020014281526020018681526020016000151581525090506000803373ffffffffffffffffffffffffffffffffffffffff1673ffffffffffffffffffffffffffffffffffffffff16815260200190815260200160002081908060018154018082558091505060019003906000526020600020906007020160009091909190915060008201518160000160006101000a81548173ffffffffffffffffffffffffffffffffffffffff021916908373ffffffffffffffffffffffffffffffffffffffff16021790555060208201518160010160006101000a81548173ffffffffffffffffffffffffffffffffffffffff021916908373ffffffffffffffffffffffffffffffffffffffff160217905550604082015181600201908162002a449190620047f9565b50606082015181600301908162002a5c9190620047f9565b506080820151816004015560a0820151816005015560c08201518160060160006101000a81548160ff02191690831515021790555050506001600460003373ffffffffffffffffffffffffffffffffffffffff1673ffffffffffffffffffffffffffffffffffffffff16815260200190815260200160002060008b73ffffffffffffffffffffffffffffffffffffffff1673ffffffffffffffffffffffffffffffffffffffff16815260200190815260200160002060006101000a81548160ff02191690831515021790555080600260008b73ffffffffffffffffffffffffffffffffffffffff1673ffffffffffffffffffffffffffffffffffffffff16815260200190815260200160002060008201518160000160006101000a81548173ffffffffffffffffffffffffffffffffffffffff021916908373ffffffffffffffffffffffffffffffffffffffff16021790555060208201518160010160006101000a81548173ffffffffffffffffffffffffffffffffffffffff021916908373ffffffffffffffffffffffffffffffffffffffff160217905550604082015181600201908162002c0d9190620047f9565b50606082015181600301908162002c259190620047f9565b506080820151816004015560a0820151816005015560c08201518160060160006101000a81548160ff02191690831515021790555090505080600560003373ffffffffffffffffffffffffffffffffffffffff1673ffffffffffffffffffffffffffffffffffffffff16815260200190815260200160002060008b73ffffffffffffffffffffffffffffffffffffffff1673ffffffffffffffffffffffffffffffffffffffff16815260200190815260200160002060008201518160000160006101000a81548173ffffffffffffffffffffffffffffffffffffffff021916908373ffffffffffffffffffffffffffffffffffffffff16021790555060208201518160010160006101000a81548173ffffffffffffffffffffffffffffffffffffffff021916908373ffffffffffffffffffffffffffffffffffffffff160217905550604082015181600201908162002d7f9190620047f9565b50606082015181600301908162002d979190620047f9565b506080820151816004015560a0820151816005015560c08201518160060160006101000a81548160ff0219169083151502179055509050506001935050505095945050505050565b600080859050600081510362002e2c576040517f08c379a000000000000000000000000000000000000000000000000000000000815260040162002e239062004930565b60405180910390fd5b3373ffffffffffffffffffffffffffffffffffffffff16600160003373ffffffffffffffffffffffffffffffffffffffff1673ffffffffffffffffffffffffffffffffffffffff16815260200190815260200160002060020160009054906101000a900473ffffffffffffffffffffffffffffffffffffffff1673ffffffffffffffffffffffffffffffffffffffff160362002eff576040517f08c379a000000000000000000000000000000000000000000000000000000000815260040162002ef690620049a2565b60405180910390fd5b600085858560405162002f1290620033a8565b62002f2093929190620049c4565b604051809103906000f08015801562002f3d573d6000803e3d6000fd5b5090508073ffffffffffffffffffffffffffffffffffffffff166340c10f1933621e84806040518363ffffffff1660e01b815260040162002f8092919062004a52565b6020604051808303816000875af115801562002fa0573d6000803e3d6000fd5b505050506040513d601f19601f8201168201806040525081019062002fc69190620042fd565b50600060405180608001604052808981526020018373ffffffffffffffffffffffffffffffffffffffff1681526020013373ffffffffffffffffffffffffffffffffffffffff16815260200160011515815250905080600160003373ffffffffffffffffffffffffffffffffffffffff1673ffffffffffffffffffffffffffffffffffffffff1681526020019081526020016000206000820151816000019081620030729190620047f9565b5060208201518160010160006101000a81548173ffffffffffffffffffffffffffffffffffffffff021916908373ffffffffffffffffffffffffffffffffffffffff16021790555060408201518160020160006101000a81548173ffffffffffffffffffffffffffffffffffffffff021916908373ffffffffffffffffffffffffffffffffffffffff16021790555060608201518160020160146101000a81548160ff02191690831515021790555090505060019350505050949350505050565b600033600160008273ffffffffffffffffffffffffffffffffffffffff1673ffffffffffffffffffffffffffffffffffffffff16815260200190815260200160002060020160149054906101000a900460ff16620031c8576040517f08c379a0000000000000000000000000000000000000000000000000000000008152600401620031bf9062003dec565b60405180910390fd5b3373ffffffffffffffffffffffffffffffffffffffff16600560003373ffffffffffffffffffffffffffffffffffffffff1673ffffffffffffffffffffffffffffffffffffffff16815260200190815260200160002060008573ffffffffffffffffffffffffffffffffffffffff1673ffffffffffffffffffffffffffffffffffffffff16815260200190815260200160002060010160009054906101000a900473ffffffffffffffffffffffffffffffffffffffff1673ffffffffffffffffffffffffffffffffffffffff1614620032d8576040517f08c379a0000000000000000000000000000000000000000000000000000000008152600401620032cf9062004acf565b60405180910390fd5b6001600260008573ffffffffffffffffffffffffffffffffffffffff1673ffffffffffffffffffffffffffffffffffffffff16815260200190815260200160002060060160006101000a81548160ff0219169083151502179055506001915050919050565b6040518060e00160405280600073ffffffffffffffffffffffffffffffffffffffff168152602001600073ffffffffffffffffffffffffffffffffffffffff168152602001606081526020016060815260200160008152602001600081526020016000151581525090565b6114a68062004af283390190565b6000604051905090565b600080fd5b600080fd5b600073ffffffffffffffffffffffffffffffffffffffff82169050919050565b6000620033f782620033ca565b9050919050565b6200340981620033ea565b81146200341557600080fd5b50565b6000813590506200342981620033fe565b92915050565b600060208284031215620034485762003447620033c0565b5b6000620034588482850162003418565b91505092915050565b6200346c81620033ea565b82525050565b600081519050919050565b600082825260208201905092915050565b60005b83811015620034ae57808201518184015260208101905062003491565b60008484015250505050565b6000601f19601f8301169050919050565b6000620034d88262003472565b620034e481856200347d565b9350620034f68185602086016200348e565b6200350181620034ba565b840191505092915050565b6000819050919050565b62003521816200350c565b82525050565b60008115159050919050565b6200353e8162003527565b82525050565b600060e0830160008301516200355e600086018262003461565b50602083015162003573602086018262003461565b50604083015184820360408601526200358d8282620034cb565b91505060608301518482036060860152620035a98282620034cb565b9150506080830151620035c0608086018262003516565b5060a0830151620035d560a086018262003516565b5060c0830151620035ea60c086018262003533565b508091505092915050565b6000602082019050818103600083015262003611818462003544565b905092915050565b62003624816200350c565b82525050565b600060208201905062003641600083018462003619565b92915050565b62003652816200350c565b81146200365e57600080fd5b50565b600081359050620036728162003647565b92915050565b600080600060608486031215620036945762003693620033c0565b5b6000620036a48682870162003418565b9350506020620036b78682870162003418565b9250506040620036ca8682870162003661565b9150509250925092565b600082825260208201905092915050565b6000620036f28262003472565b620036fe8185620036d4565b9350620037108185602086016200348e565b6200371b81620034ba565b840191505092915050565b60006020820190508181036000830152620037428184620036e5565b905092915050565b620037558162003527565b82525050565b60006020820190506200377260008301846200374a565b92915050565b600081519050919050565b600082825260208201905092915050565b6000819050602082019050919050565b600060e083016000830151620037be600086018262003461565b506020830151620037d3602086018262003461565b5060408301518482036040860152620037ed8282620034cb565b91505060608301518482036060860152620038098282620034cb565b915050608083015162003820608086018262003516565b5060a08301516200383560a086018262003516565b5060c08301516200384a60c086018262003533565b508091505092915050565b6000620038638383620037a4565b905092915050565b6000602082019050919050565b6000620038858262003778565b62003891818562003783565b935083602082028501620038a58562003794565b8060005b85811015620038e75784840389528151620038c5858262003855565b9450620038d2836200386b565b925060208a01995050600181019050620038a9565b50829750879550505050505092915050565b6000602082019050818103600083015262003915818462003878565b905092915050565b600080fd5b600080fd5b7f4e487b7100000000000000000000000000000000000000000000000000000000600052604160045260246000fd5b6200396182620034ba565b810181811067ffffffffffffffff8211171562003983576200398262003927565b5b80604052505050565b600062003998620033b6565b9050620039a6828262003956565b919050565b600067ffffffffffffffff821115620039c957620039c862003927565b5b620039d482620034ba565b9050602081019050919050565b82818337600083830152505050565b600062003a0762003a0184620039ab565b6200398c565b90508281526020810184848401111562003a265762003a2562003922565b5b62003a33848285620039e1565b509392505050565b600082601f83011262003a535762003a526200391d565b5b813562003a65848260208601620039f0565b91505092915050565b600080600080600060a0868803121562003a8d5762003a8c620033c0565b5b600062003a9d8882890162003418565b955050602086013567ffffffffffffffff81111562003ac15762003ac0620033c5565b5b62003acf8882890162003a3b565b945050604086013567ffffffffffffffff81111562003af35762003af2620033c5565b5b62003b018882890162003a3b565b935050606062003b148882890162003661565b925050608062003b278882890162003661565b9150509295509295909350565b6000806000806080858703121562003b515762003b50620033c0565b5b600085013567ffffffffffffffff81111562003b725762003b71620033c5565b5b62003b808782880162003a3b565b945050602085013567ffffffffffffffff81111562003ba45762003ba3620033c5565b5b62003bb28782880162003a3b565b935050604085013567ffffffffffffffff81111562003bd65762003bd5620033c5565b5b62003be48782880162003a3b565b925050606062003bf78782880162003661565b91505092959194509250565b7f536f72727920796f75206861766520746f2062652061207374616b65686f6c6460008201527f6572206f7220612077686974656c697374656420616464726573730000000000602082015250565b600062003c61603b83620036d4565b915062003c6e8262003c03565b604082019050919050565b6000602082019050818103600083015262003c948162003c52565b9050919050565b7f4e487b7100000000000000000000000000000000000000000000000000000000600052602260045260246000fd5b6000600282049050600182168062003ce357607f821691505b60208210810362003cf95762003cf862003c9b565b5b50919050565b62003d0a81620033ea565b82525050565b600060208201905062003d27600083018462003cff565b92915050565b60008151905062003d3e8162003647565b92915050565b60006020828403121562003d5d5762003d5c620033c0565b5b600062003d6d8482850162003d2d565b91505092915050565b7f736f72727920796f75206861766520746f20626520612072656769737465726560008201527f64206f7267616e697a6174696f6e000000000000000000000000000000000000602082015250565b600062003dd4602e83620036d4565b915062003de18262003d76565b604082019050919050565b6000602082019050818103600083015262003e078162003dc5565b9050919050565b7f6e6f742061207374616b65686f6c64657220696e20796f7572206f7267616e6960008201527f7a6174696f6e0000000000000000000000000000000000000000000000000000602082015250565b600062003e6c602683620036d4565b915062003e798262003e0e565b604082019050919050565b6000602082019050818103600083015262003e9f8162003e5d565b9050919050565b7f736f727279206e6f742061207374616b65686f6c646572000000000000000000600082015250565b600062003ede601783620036d4565b915062003eeb8262003ea6565b602082019050919050565b6000602082019050818103600083015262003f118162003ecf565b9050919050565b7f7374616b65686f6c64657220646f65736e2774206861766520656e6f7567682060008201527f66756e6473000000000000000000000000000000000000000000000000000000602082015250565b600062003f76602583620036d4565b915062003f838262003f18565b604082019050919050565b6000602082019050818103600083015262003fa98162003f67565b9050919050565b7f4e487b7100000000000000000000000000000000000000000000000000000000600052601160045260246000fd5b600062003fec826200350c565b915062003ff9836200350c565b925082820190508082111562004014576200401362003fb0565b5b92915050565b600062004027826200350c565b915062004034836200350c565b92508282039050818111156200404f576200404e62003fb0565b5b92915050565b7f536f727279204f6e6c79207374616b65686f6c6465727320616e64207768697460008201527f656c6973746564206164647265737365732063616e207374616b6520746f6b6560208201527f6e73000000000000000000000000000000000000000000000000000000000000604082015250565b6000620040d9604283620036d4565b9150620040e68262004055565b606082019050919050565b600060208201905081810360008301526200410c81620040ca565b9050919050565b7f536f7272792076657374696e6720706572696f64206973206e6f74206f766572600082015250565b60006200414b602083620036d4565b9150620041588262004113565b602082019050919050565b600060208201905081810360008301526200417e816200413c565b9050919050565b7f736f727279207374616b65686f6c646572206469646e2774206d65657420636f60008201527f6e646974696f6e00000000000000000000000000000000000000000000000000602082015250565b6000620041e3602783620036d4565b9150620041f08262004185565b604082019050919050565b600060208201905081810360008301526200421681620041d4565b9050919050565b7f736f72727920796f7520616c726561647920636c61696d656420746f6b656e00600082015250565b600062004255601f83620036d4565b915062004262826200421d565b602082019050919050565b60006020820190508181036000830152620042888162004246565b9050919050565b6000606082019050620042a6600083018662003cff565b620042b5602083018562003cff565b620042c4604083018462003619565b949350505050565b620042d78162003527565b8114620042e357600080fd5b50565b600081519050620042f781620042cc565b92915050565b600060208284031215620043165762004315620033c0565b5b60006200432684828501620042e6565b91505092915050565b7f536f72727920796f7520616c726561647920636c61696d656420746f6b656e00600082015250565b600062004367601f83620036d4565b915062004374826200432f565b602082019050919050565b600060208201905081810360008301526200439a8162004358565b9050919050565b7f796f7520646f6e27742068617665207374616b65686f6c646572730000000000600082015250565b6000620043d9601b83620036d4565b9150620043e682620043a1565b602082019050919050565b600060208201905081810360008301526200440c81620043ca565b9050919050565b7f706c6561736520696e70757420612076616c6964206164647265737300000000600082015250565b60006200444b601c83620036d4565b9150620044588262004413565b602082019050919050565b600060208201905081810360008301526200447e816200443c565b9050919050565b7f796f752063616e2774207265676973746572207468652073616d65207374616b60008201527f65686f6c64657220747769636500000000000000000000000000000000000000602082015250565b6000620044e3602d83620036d4565b9150620044f08262004485565b604082019050919050565b600060208201905081810360008301526200451681620044d4565b9050919050565b7f706c6561736520656e746572206120726f6c6500000000000000000000000000600082015250565b600062004555601383620036d4565b915062004562826200451d565b602082019050919050565b60006020820190508181036000830152620045888162004546565b9050919050565b7f706c656173652070726f76696465206120636f6e646974696f6e20666f72207260008201527f656c65617365206f662066756e64730000000000000000000000000000000000602082015250565b6000620045ed602f83620036d4565b9150620045fa826200458f565b604082019050919050565b600060208201905081810360008301526200462081620045de565b9050919050565b60008190508160005260206000209050919050565b60006020601f8301049050919050565b600082821b905092915050565b6000600883026200468b7fffffffffffffffffffffffffffffffffffffffffffffffffffffffffffffffff826200464c565b6200469786836200464c565b95508019841693508086168417925050509392505050565b6000819050919050565b6000620046da620046d4620046ce846200350c565b620046af565b6200350c565b9050919050565b6000819050919050565b620046f683620046b9565b6200470e6200470582620046e1565b84845462004659565b825550505050565b600090565b6200472562004716565b62004732818484620046eb565b505050565b5b818110156200475a576200474e6000826200471b565b60018101905062004738565b5050565b601f821115620047a957620047738162004627565b6200477e846200463c565b810160208510156200478e578190505b620047a66200479d856200463c565b83018262004737565b50505b505050565b600082821c905092915050565b6000620047ce60001984600802620047ae565b1980831691505092915050565b6000620047e98383620047bb565b9150826002028217905092915050565b620048048262003472565b67ffffffffffffffff81111562004820576200481f62003927565b5b6200482c825462003cca565b620048398282856200475e565b600060209050601f8311600181146200487157600084156200485c578287015190505b620048688582620047db565b865550620048d8565b601f198416620048818662004627565b60005b82811015620048ab5784890151825560018201915060208501945060208101905062004884565b86831015620048cb5784890151620048c7601f891682620047bb565b8355505b6001600288020188555050505b505050505050565b7f706c6561736520656e746572206f7267206e616d650000000000000000000000600082015250565b600062004918601583620036d4565b91506200492582620048e0565b602082019050919050565b600060208201905081810360008301526200494b8162004909565b9050919050565b7f796f752061726520616c72656164792072656769737465726564000000000000600082015250565b60006200498a601a83620036d4565b9150620049978262004952565b602082019050919050565b60006020820190508181036000830152620049bd816200497b565b9050919050565b60006060820190508181036000830152620049e08186620036e5565b90508181036020830152620049f68185620036e5565b905062004a07604083018462003619565b949350505050565b6000819050919050565b600062004a3a62004a3462004a2e8462004a0f565b620046af565b6200350c565b9050919050565b62004a4c8162004a19565b82525050565b600060408201905062004a69600083018562003cff565b62004a78602083018462004a41565b9392505050565b7f6e6f7420796f7572207374616b65686f6c646572000000000000000000000000600082015250565b600062004ab7601483620036d4565b915062004ac48262004a7f565b602082019050919050565b6000602082019050818103600083015262004aea8162004aa8565b905091905056fe60806040523480156200001157600080fd5b50604051620014a6380380620014a683398181016040528101906200003791906200027a565b826000908162000048919062000555565b5081600190816200005a919062000555565b508060028190555033600360006101000a81548173ffffffffffffffffffffffffffffffffffffffff021916908373ffffffffffffffffffffffffffffffffffffffff1602179055505050506200063c565b6000604051905090565b600080fd5b600080fd5b600080fd5b600080fd5b6000601f19601f8301169050919050565b7f4e487b7100000000000000000000000000000000000000000000000000000000600052604160045260246000fd5b6200011582620000ca565b810181811067ffffffffffffffff82111715620001375762000136620000db565b5b80604052505050565b60006200014c620000ac565b90506200015a82826200010a565b919050565b600067ffffffffffffffff8211156200017d576200017c620000db565b5b6200018882620000ca565b9050602081019050919050565b60005b83811015620001b557808201518184015260208101905062000198565b60008484015250505050565b6000620001d8620001d2846200015f565b62000140565b905082815260208101848484011115620001f757620001f6620000c5565b5b6200020484828562000195565b509392505050565b600082601f830112620002245762000223620000c0565b5b815162000236848260208601620001c1565b91505092915050565b6000819050919050565b62000254816200023f565b81146200026057600080fd5b50565b600081519050620002748162000249565b92915050565b600080600060608486031215620002965762000295620000b6565b5b600084015167ffffffffffffffff811115620002b757620002b6620000bb565b5b620002c5868287016200020c565b935050602084015167ffffffffffffffff811115620002e957620002e8620000bb565b5b620002f7868287016200020c565b92505060406200030a8682870162000263565b9150509250925092565b600081519050919050565b7f4e487b7100000000000000000000000000000000000000000000000000000000600052602260045260246000fd5b600060028204905060018216806200036757607f821691505b6020821081036200037d576200037c6200031f565b5b50919050565b60008190508160005260206000209050919050565b60006020601f8301049050919050565b600082821b905092915050565b600060088302620003e77fffffffffffffffffffffffffffffffffffffffffffffffffffffffffffffffff82620003a8565b620003f38683620003a8565b95508019841693508086168417925050509392505050565b6000819050919050565b600062000436620004306200042a846200023f565b6200040b565b6200023f565b9050919050565b6000819050919050565b620004528362000415565b6200046a62000461826200043d565b848454620003b5565b825550505050565b600090565b6200048162000472565b6200048e81848462000447565b505050565b5b81811015620004b657620004aa60008262000477565b60018101905062000494565b5050565b601f8211156200050557620004cf8162000383565b620004da8462000398565b81016020851015620004ea578190505b62000502620004f98562000398565b83018262000493565b50505b505050565b600082821c905092915050565b60006200052a600019846008026200050a565b1980831691505092915050565b600062000545838362000517565b9150826002028217905092915050565b620005608262000314565b67ffffffffffffffff8111156200057c576200057b620000db565b5b6200058882546200034e565b62000595828285620004ba565b600060209050601f831160018114620005cd5760008415620005b8578287015190505b620005c4858262000537565b86555062000634565b601f198416620005dd8662000383565b60005b828110156200060757848901518255600182019150602085019450602081019050620005e0565b8683101562000627578489015162000623601f89168262000517565b8355505b6001600288020188555050505b505050505050565b610e5a806200064c6000396000f3fe608060405234801561001057600080fd5b50600436106100a95760003560e01c806342966c681161007157806342966c6814610169578063557ed1ba146101855780638da5cb5b146101a357806395d89b41146101c1578063a9059cbb146101df578063e3d670d71461020f576100a9565b806306fdde03146100ae57806316f10d25146100cc57806318160ddd146100eb57806323b872dd1461010957806340c10f1914610139575b600080fd5b6100b661023f565b6040516100c3919061095a565b60405180910390f35b6100d46102cd565b6040516100e292919061097c565b60405180910390f35b6100f36103f4565b60405161010091906109cc565b60405180910390f35b610123600480360381019061011e9190610a76565b6103fa565b6040516101309190610ae4565b60405180910390f35b610153600480360381019061014e9190610aff565b610535565b6040516101609190610ae4565b60405180910390f35b610183600480360381019061017e9190610b3f565b61061e565b005b61018d610712565b60405161019a91906109cc565b60405180910390f35b6101ab61071a565b6040516101b89190610b7b565b60405180910390f35b6101c9610740565b6040516101d6919061095a565b60405180910390f35b6101f960048036038101906101f49190610aff565b6107ce565b6040516102069190610ae4565b60405180910390f35b61022960048036038101906102249190610b96565b6108b2565b60405161023691906109cc565b60405180910390f35b6000805461024c90610bf2565b80601f016020809104026020016040519081016040528092919081815260200182805461027890610bf2565b80156102c55780601f1061029a576101008083540402835291602001916102c5565b820191906000526020600020905b8154815290600101906020018083116102a857829003601f168201915b505050505081565b606080600060018180546102e090610bf2565b80601f016020809104026020016040519081016040528092919081815260200182805461030c90610bf2565b80156103595780601f1061032e57610100808354040283529160200191610359565b820191906000526020600020905b81548152906001019060200180831161033c57829003601f168201915b5050505050915080805461036c90610bf2565b80601f016020809104026020016040519081016040528092919081815260200182805461039890610bf2565b80156103e55780601f106103ba576101008083540402835291602001916103e5565b820191906000526020600020905b8154815290600101906020018083116103c857829003601f168201915b50505050509050915091509091565b60025481565b600081600460008673ffffffffffffffffffffffffffffffffffffffff1673ffffffffffffffffffffffffffffffffffffffff16815260200190815260200160002054101561047e576040517f08c379a000000000000000000000000000000000000000000000000000000000815260040161047590610c95565b60405180910390fd5b81600460008573ffffffffffffffffffffffffffffffffffffffff1673ffffffffffffffffffffffffffffffffffffffff16815260200190815260200160002060008282546104cd9190610ce4565b9250508190555081600460008673ffffffffffffffffffffffffffffffffffffffff1673ffffffffffffffffffffffffffffffffffffffff16815260200190815260200160002060008282546105239190610d18565b92505081905550600190509392505050565b60008073ffffffffffffffffffffffffffffffffffffffff168373ffffffffffffffffffffffffffffffffffffffff16036105a5576040517f08c379a000000000000000000000000000000000000000000000000000000000815260040161059c90610d98565b60405180910390fd5b81600460008573ffffffffffffffffffffffffffffffffffffffff1673ffffffffffffffffffffffffffffffffffffffff16815260200190815260200160002060008282546105f49190610ce4565b92505081905550816002600082825461060d9190610ce4565b925050819055506001905092915050565b80600460003373ffffffffffffffffffffffffffffffffffffffff1673ffffffffffffffffffffffffffffffffffffffff1681526020019081526020016000205410156106a0576040517f08c379a000000000000000000000000000000000000000000000000000000000815260040161069790610e04565b60405180910390fd5b80600460003373ffffffffffffffffffffffffffffffffffffffff1673ffffffffffffffffffffffffffffffffffffffff16815260200190815260200160002060008282546106ef9190610d18565b9250508190555080600260008282546107089190610d18565b9250508190555050565b600042905090565b600360009054906101000a900473ffffffffffffffffffffffffffffffffffffffff1681565b6001805461074d90610bf2565b80601f016020809104026020016040519081016040528092919081815260200182805461077990610bf2565b80156107c65780601f1061079b576101008083540402835291602001916107c6565b820191906000526020600020905b8154815290600101906020018083116107a957829003601f168201915b505050505081565b600081600460003373ffffffffffffffffffffffffffffffffffffffff1673ffffffffffffffffffffffffffffffffffffffff168152602001908152602001600020541015610852576040517f08c379a000000000000000000000000000000000000000000000000000000000815260040161084990610c95565b60405180910390fd5b81600460008573ffffffffffffffffffffffffffffffffffffffff1673ffffffffffffffffffffffffffffffffffffffff16815260200190815260200160002060008282546108a19190610ce4565b925050819055506001905092915050565b60046020528060005260406000206000915090505481565b600081519050919050565b600082825260208201905092915050565b60005b838110156109045780820151818401526020810190506108e9565b60008484015250505050565b6000601f19601f8301169050919050565b600061092c826108ca565b61093681856108d5565b93506109468185602086016108e6565b61094f81610910565b840191505092915050565b600060208201905081810360008301526109748184610921565b905092915050565b600060408201905081810360008301526109968185610921565b905081810360208301526109aa8184610921565b90509392505050565b6000819050919050565b6109c6816109b3565b82525050565b60006020820190506109e160008301846109bd565b92915050565b600080fd5b600073ffffffffffffffffffffffffffffffffffffffff82169050919050565b6000610a17826109ec565b9050919050565b610a2781610a0c565b8114610a3257600080fd5b50565b600081359050610a4481610a1e565b92915050565b610a53816109b3565b8114610a5e57600080fd5b50565b600081359050610a7081610a4a565b92915050565b600080600060608486031215610a8f57610a8e6109e7565b5b6000610a9d86828701610a35565b9350506020610aae86828701610a35565b9250506040610abf86828701610a61565b9150509250925092565b60008115159050919050565b610ade81610ac9565b82525050565b6000602082019050610af96000830184610ad5565b92915050565b60008060408385031215610b1657610b156109e7565b5b6000610b2485828601610a35565b9250506020610b3585828601610a61565b9150509250929050565b600060208284031215610b5557610b546109e7565b5b6000610b6384828501610a61565b91505092915050565b610b7581610a0c565b82525050565b6000602082019050610b906000830184610b6c565b92915050565b600060208284031215610bac57610bab6109e7565b5b6000610bba84828501610a35565b91505092915050565b7f4e487b7100000000000000000000000000000000000000000000000000000000600052602260045260246000fd5b60006002820490506001821680610c0a57607f821691505b602082108103610c1d57610c1c610bc3565b5b50919050565b7f736f72727920796f7520646f6e2774206861766520656e6f756768206d6f6e6560008201527f7920746f2073656e6420746f207468697320726563697069656e740000000000602082015250565b6000610c7f603b836108d5565b9150610c8a82610c23565b604082019050919050565b60006020820190508181036000830152610cae81610c72565b9050919050565b7f4e487b7100000000000000000000000000000000000000000000000000000000600052601160045260246000fd5b6000610cef826109b3565b9150610cfa836109b3565b9250828201905080821115610d1257610d11610cb5565b5b92915050565b6000610d23826109b3565b9150610d2e836109b3565b9250828203905081811115610d4657610d45610cb5565b5b92915050565b7f736f7272792063616e74206d696e7420746f2030206164647265737300000000600082015250565b6000610d82601c836108d5565b9150610d8d82610d4c565b602082019050919050565b60006020820190508181036000830152610db181610d75565b9050919050565b7f736f72727920796f75277265206e6f7420616c6c6f77656420746f206d696e74600082015250565b6000610dee6020836108d5565b9150610df982610db8565b602082019050919050565b60006020820190508181036000830152610e1d81610de1565b905091905056fea26469706673582212204a5c639d61e9f02abc7d5a89db8771ab061011d61879392bfa5d150f3d16b5a764736f6c63430008120033a26469706673582212205703422315ea0e3662037ff5011a8a5daa229e93c91ea67ad694b928a93df6be64736f6c63430008120033",
  "linkReferences": {},
  "deployedLinkReferences": {}
}